:100000000C9471050C94B8050C94B8050C94E22D71
:100010000C94B8050C94B8050C94B8050C94B8056C
:100020000C94B8050C94B8050C94DB150C9497153A
:100030000C94692B0C94B8050C94B8050C94B80575
:100040000C94B8050C94B8050C94B8050C94B8053C
:100050000C94B8050C94EA160C94B8050C94B805E9
:100060000C94B8050C94B8050C94B8050C94B8051C
:100070000C94B8050C94B8050C94B8050C94B8050C
:100080000C94B8050C94B8050C94B8050C94B805FC
:100090000C94B8050C94B8050C94B8050C94B805EC
:1000A0000C94B8050C94B8050C94B8050001010136
:1000B0000101010101010202020202020202020325
:1000C00003030303030303040404040404040505F5
:1000D00005050506060606060707070707080808B8
:1000E00008090909090A0A0A0B0B0B0C0C0C0D0D67
:1000F0000D0E0E0E0F0F0F101011111112121313FF
:100100001414151516161717181819191A1A1B1B77
:100110001C1D1D1E1E1F20202122222324242526D3
:1001200026272829292A2B2C2D2D2E2F303132320B
:10013000333435363738393A3B3C3D3E3F40414217
:10014000434445464748494A4C4D4E4F50515354FD
:10015000555658595A5B5D5E5F61626465666869B1
:100160006B6C6D6F7072737577787A7B7D7E808231
:10017000838587888A8C8E8F91939596989A9C9E7A
:10018000A0A2A3A5A7A9ABADAFB1B3B5B7BABCBE8A
:10019000C0C2C4C6C9CBCDCFD1D4D6D8DBDDDFE257
:1001A000E4E7E9EBEEF0F3F5F8FAFDFF2B001400BD
:1001B0001A00080015001700E000040016000700F0
:1001C00009000A00E1001D001B00060019000500DF
:1001D000000000000000E300105F2C002A00130064
:1001E00012000C0018001C00340033000F000E0039
:1001F0000D000B00290038003700360010001100F8
:10020000000000000000E600115F28002B001E0027
:100210001F00200021002200E0000000000000007C
:1002200000000000E10000000000000000000000ED
:10023000000000000000E30001002C002A0027005D
:100240002600250024002300000000004F0052007B
:1002500051005000000000000000000000000000FD
:10026000000000000000E600010028002B001E0234
:100270001F02200221022202E00000000000000014
:1002800000000000E100000000000000000000008D
:10029000000000000000E30001002C002A002702FB
:1002A00026022502240223023500310030002F00EF
:1002B0002E002D003502310230022F022E022D02B7
:1002C000000000000000E60001002800005C0000C3
:1002D0000000000000000000C25CC55CC75CC95C97
:1002E00000000000C35CC65CC85CCA5C0000000083
:1002F000000000000000E30001002C0000000000EE
:1003000000000000000000000000000000000000ED
:1003100000000000000000000000000000000000DD
:10032000000000000000E6000100280000AF00000F
:1003300000000000000000000000000000000000BD
:1003400000000000000000000000000000000000AD
:1003500000007E0F00D4FFFFFFC700000078000000
:100360000000000000002A2B280000000000000010
:1003700000000000000000000029000000002C1E0A
:100380003420212224342627252E362D3738271EC7
:100390001F202122232425263333362E37381F04ED
:1003A00005060708090A0B0C0D0E0F101112131485
:1003B00015161718191A1B1C1D2F3130232D350443
:1003C00005060708090A0B0C0D0E0F101112131465
:1003D00015161718191A1B1C1D2F3130354C00DA51
:1003E0000281FFD9F1DB20A4A62EAF00A0C000A19E
:1003F000C800AED580A81FD300408D1420004164F2
:100400006A757374005261697365004C6F77657229
:100410000044656661756C74004C617965723A20C0
:1004200000808182838485868788898A8B8C8D8EE3
:100430008F9091929394A0A1A2A3A4A5A6A7A8A9E6
:10044000AAABACADAEAFB0B1B2B3B4C0C1C2C3C45D
:10045000C5C6C7C8C9CACBCCCDCECFD0D1D2D3D4D4
:100460000000AE0660FF0961A1010962150026FFC8
:10047000009520750881020963150026FF0095206C
:1004800075089102C005010906A101050719E029B7
:10049000E715002501950875018102950175088110
:1004A000010507190029FF150026FF0095067508AC
:1004B000810005081901290595057501910295012D
:1004C00075039101C00902A600040100A0FA090405
:1004D0000000010301010009211101000122400077
:1004E0000705810308000A09040100020300000057
:1004F00009211101000122220007058203200001C9
:1005000007050303200001080B0202010100000996
:10051000040200000101000009240100010900019A
:100520000309040300020103000007240100014144
:10053000000624020101000624020202000924032D
:100540000103010201000924030204010101000961
:10055000050502400005000005250101010905848B
:1005600002400005000005250101031201100100F1
:10057000000008534601000100010200010C034382
:10058000006F0072006E0065000000100366006FCF
:10059000006F007300740061006E00000004030926
:1005A000040000000000003E5B4F5B3E003E6B4FCE
:1005B0006B3E001C3E7C3E1C00183C7E3C18001C20
:1005C000577D571C001C5E7F5E1C0000183C180005
:1005D00000FFE7C3E7FF00001824180000FFE7DB77
:1005E000E7FF0030483A060E002629792926004008
:1005F0007F05050700407F05253F005A3CE73C5A30
:10060000007F3E1C1C0800081C1C3E7F0014227F3B
:100610002214005F5F005F5F0006097F017F00001A
:100620006689956A0060606060600094A2FFA29491
:100630000008047E04080010207E20100008082A0C
:100640001C0800081C2A0808001E10101010000CBE
:100650001E0C1E0C0030383E383000060E3E0E06D2
:100660000000000000000000005F00000000070024
:10067000070000147F147F1400242A7F2A1200230D
:100680001308646200364956205000000807030032
:1006900000001C224100000041221C00002A1C7F97
:1006A0001C2A0008083E080800008070300000087E
:1006B000080808080000006060000020100804021C
:1006C000003E5149453E0000427F400000724949CA
:1006D0004946002141494D33001814127F1000276C
:1006E00045454539003C4A49493100412111090736
:1006F00000364949493600464949291E0000001480
:1007000000000000403400000000081422410014E2
:10071000141414140000412214080002015909069F
:10072000003E415D594E007C1211127C007F494908
:100730004936003E41414122007F4141413E007F18
:1007400049494941007F09090901003E414151736E
:10075000007F0808087F0000417F410000204041E1
:100760003F01007F08142241007F40404040007F4D
:10077000021C027F007F0408107F003E4141413E81
:10078000007F09090906003E4151215E007F0919D9
:1007900029460026494949320003017F0103003FF1
:1007A0004040403F001F2040201F003F4038403F56
:1007B00000631408146300030478040300615949BA
:1007C0004D4300007F414141000204081020000019
:1007D0004141417F0004020102040040404040408A
:1007E000000003070800002054547840007F28448C
:1007F000443800384444442800384444287F0038B2
:10080000545454180000087E0902001824241C784F
:10081000007F080404780000447D40000020404030
:100820003D00007F102844000000417F4000007C14
:1008300004780478007C0804047800384444443880
:10084000007C1824241800182424187C007C080438
:1008500004080048545454240004043F4424003C39
:100860004040207C001C2040201C003C4030403C8C
:10087000004428102844004C9090907C004464541C
:100880004C440000083641000000007700000000E2
:1008900041360800000201020402003C2623263CE7
:1008A0000000000000000000000000000000000048
:1008B00000C0E0F0F8F81800C0F0FCFEFFFFFFFFFA
:1008C000FFFFFF7E00000000000000000080C0E08D
:1008D000E0E0E0E0E0E0E0C0800000000080C0E098
:1008E000E0E0E0E0E0E0E0C080000000E0E0C0C068
:1008F000E0E0E0E00000E0E0C0C0E0E0E0E0E0C018
:10090000800000000080C0E0E0E0E0E0E0E0E0C067
:10091000800000000000000000000000000000E077
:10092000F0F0F0E0ECEEF7F37020007C7C7C7E00D1
:100930007E7E7E7F7F7F000080C0E07E5B4F5BFE1F
:10094000C00000C000DCD7DEDEDED7DC00C0000067
:100950000000000000000000000000000000000097
:1009600000000000000000000000F8FCFEFFE000B6
:10097000FFFFFFFFFFFF80FFFFFFFFFFFFFFFFFF06
:100980001F0701000000000000000000FFFFFF81C2
:1009900000000000000081C3C3C30000FFFFFF810F
:1009A00000000000000081FFFFFF0000FFFFFF01CB
:1009B000000000000000FFFFFF010000000001FF39
:1009C000FFFF0000FFFFFF9D1C1C1C1C1C1C9DDF6B
:1009D000DFDF000000000000000000000000000F4A
:1009E0001F3F7F7F7F7F7F3F1E0C001F1F1F3F0029
:1009F0003F3F3F7F7F7F00307B7F78302020307803
:100A00007F3B0003000F7F0F0F0F7F0F00030000DD
:100A100000000000000000000000000000000000D6
:100A200000000000000000000000030F1F3F3F3FD8
:100A30003F1F1F3F3F7F7F7F3F3F1F3F7F7F7F7F66
:100A40007C7878381C0F00000000000000010307CC
:100A50000707070707070703010000000001030756
:100A6000070707070707070301000000070707003C
:100A7000000000000000070707000000000000075A
:100A80000707000000010307070707070707070319
:100A90000100000000000000000000000000000055
:100AA0000000000000000000000000000000000046
:100AB0000000000000000000000000000000000036
:100AC0000000000000000000000000000000000026
:100AD0000000000000000000000000000000000016
:100AE000000011241FBECFEFDAE0DEBFCDBF04B699
:100AF00003FE27C08091570690915806A091590691
:100B0000B0915A068730904BA740B04BD1F4109269
:100B10005706109258061092590610925A0614BEA3
:100B200084B7877F84BF0FB6F894A8958091600042
:100B3000886180936000109260000FBEE0E0F8E3EF
:100B4000099511E0A0E0B1E0E8E5F5E602C0059006
:100B50000D92A43AB107D9F726E0A4EAB1E001C0AA
:100B60001D92A735B207E1F70E941A240C94643253
:100B70000C9400000F931F939B01305E8901000FBE
:100B8000012F001F110B11952F77482F406EE09118
:100B90004303F091440363E070E083E493E009953C
:100BA0001F910F9108950F93262F042F0F77482F31
:100BB000406BE0914303F091440363E070E083E411
:100BC00093E009950F910895CF92DF92EF92FF92F3
:100BD0000F931F93CF93DF9300D00F92CDB7DEB763
:100BE0007C01162FD42EC22E809168038430B9F573
:100BF000E0915D03F0915E03309709F440C0C701B6
:100C0000019763E070E00E94FB2ECB01880F991FD3
:100C1000860F971F19834A83CB824E2D481B9E0156
:100C20002F5F3F4FBC0183E493E00995E09161039E
:100C3000F0916203309739F00C2D2D2D412FB70123
:100C400083E493E009950F900F900F90DF91CF917F
:100C50001F910F91FF90EF90DF90CF90089582E069
:100C6000E816F10409F45AC083E0E816F104A9F08B
:100C700081E0E816F10409F484C0F12CE12CE09144
:100C80005F03F0916003309789F20C2D2D2D412FD9
:100C9000B70183E493E00995C9CF862F807F803A1E
:100CA00011F188F48038D1F0E0914703F0914803C6
:100CB000803929F7309719F3123F49F12C2D4D2D2A
:100CC000612F6F7027C0803E99F0803FB1F0E091B6
:100CD0004503F0914603803B91F6ECCFE091490348
:100CE000F0914A03E7CFE0914B03F0914C03E2CF40
:100CF000E0914D03F0914E03DDCF623F09F0BFCF8D
:100D0000E0914F03F0915003309709F4B8CF2C2DA8
:100D10004D2D62EF83E493E0099588CF862F807F85
:100D2000803DB9F0803FD1F0E0915103F091520342
:100D3000803C09F0A4CF309709F4A1CF812F8D7F9B
:100D40004D2D612F6F70813FC9F083E493E00995C9
:100D50006DCFE0915303F0915403EDCFE091550333
:100D6000F0915603633F39F0613F09F088CFE0917D
:100D70005703F0915803309709F481CF4D2D612F1F
:100D8000E4CFE0915903F0915A03683F38F4663F8D
:100D900009F075CFE0915B03F0915C03309709F4A3
:100DA0006ECF612F83E493E0099540CFE8EDF0E04A
:100DB00080818E7F80831092E2001092DA00109280
:100DC000E100A0EEB0E08C9181608C9380818F7700
:100DD000808319BCA7EDB0E08C918E7F8C938081CD
:100DE0008F7E808310922C0308952091E40030912F
:100DF000E50095E6A9012091EC00822F817020FF8B
:100E000006C08091E80080FF06C080E00895209130
:100E1000E80022FD1AC080913903882389F08530CB
:100E200089F08091EB0085FD0FC02091E4003091A6
:100E3000E50042175307F9F29150E1F684E0089576
:100E400082E0089583E0089581E00895EF92FF9293
:100E50000F931F93CF937C018B010E94F506C82F3F
:100E6000811117C08091E80085FD0BC08091E800DA
:100E70008E778093E8000E94F506882399F3C82FA7
:100E800008C0F70181917F018093F10001501109A1
:100E900049F78C2FCF911F910F91FF90EF900895FC
:100EA000EF92FF920F931F93CF937C018B010E94CF
:100EB000F506C82F811117C08091E80085FD0BC091
:100EC0008091E8008B778093E8000E94F5068823E4
:100ED00099F3C82F08C08091F100F70181937F0139
:100EE0000150110949F78C2FCF911F910F91FF905D
:100EF000EF90089580913B0387FF13C08091E80035
:100F000082FF06C08091E8008B778093E80004C0E0
:100F1000809139038111F2CF08958091390388239C
:100F2000D9F38091E80080FFF8CF8091E8008E77B8
:100F3000ECCF982F9093E900242F762F50E089175B
:100F400031F07091EC002091ED005091F00021FD06
:100F500007C09F5F973071F78093E90081E00895A3
:100F60003091EB003E7F3093EB003091ED003D7F00
:100F70003093ED003091EB0031603093EB007093D3
:100F8000EC002093ED005093F0002091EE0027FD3F
:100F9000E0CF80E00895CF92DF92EF92FF920F931F
:100FA0001F93CF93DF93C8EDD0E088818F7E888335
:100FB000E7EDF0E080818160808384E082BF81E0A2
:100FC00080932C0388818E7F888302EE10E0F801E5
:100FD00010821092DA0081EEC82ED12CF601108218
:100FE00088818F77888388818068888388818F7DD6
:100FF000888319BC1092390310923A031092380377
:101000001092370390EEE92EF12CF70180818B7F4F
:10101000808388818160888342E060E080E00E9474
:101020009907F60180818E7F8083F801808181603D
:101030008083808188608083F70180818E7F8083B8
:10104000888180618883DF91CF911F910F91FF90FC
:10105000EF90DF90CF900895FC0180914103909133
:10106000420386179707A0F06115710529F4909146
:10107000E8009E779093E80090E06115710551F4C7
:10108000911108C08091E80082FF34C080E008958B
:10109000BC01F2CF809139038823C1F18530C1F1C1
:1010A0008091E80083FD30C08091E80082FDEACFA6
:1010B0008091E80080FFE1CF8091F3002091F20061
:1010C000382F6115710519F02830310558F091E07D
:1010D0002830310509F090E02091E8002E77209328
:1010E000E800CBCF81918093F100615071092F5FAF
:1010F0003F4FE7CF80913903882341F0853041F09D
:101100008091E80083FFBECF81E0089582E00895DA
:1011100083E0089580E0089508950895089508955E
:10112000089580912E030895982F907F903BE9F0C9
:1011300040F49039D1F0903AC1F09038B1F080E0AD
:101140000895903D19F020F4903CC9F782E008958D
:10115000903E59F0903F99F7815F8F3080F7E82FEC
:10116000F0E0E258FE4F8081089583E00895DF9219
:10117000EF92FF920F931F93CF93DF9300D000D095
:10118000CDB7DEB77B01142FD22E4A832B830C837D
:10119000842F0E949408811141C082E0E816F10476
:1011A000C1F183E0E816F10439F0EA94EF2829F55B
:1011B000173F29F485E004C087E0073F09F084E089
:1011C0008983809139038430C1F4809109018F7043
:1011D0008093E90050E040E064E070E0CE010196C9
:1011E0000E942607811109C08091E80085FD05C095
:1011F0008091E8008E778093E8000F900F900F9019
:101200000F90DF91CF911F910F91FF90EF90DF90A2
:10121000089587EFD812D3CF86E0D2CF12951F70F2
:101220001983CFCFFF920F931F93CF93DF9300D0FB
:1012300000D000D00F92CDB7DEB78C0108511F4F00
:1012400080913903843009F06CC080910E018F7059
:101250008093E9008091E80082FF63C08091E800FC
:1012600085FF5FC050E040E064E070E0CE01019691
:101270000E9450078091E80085FD05C08091E8003C
:101280008B778093E800FA808F2D0E949408282F96
:10129000FD828B818E838C818F8321110AC089818D
:1012A000843039F1873029F1863029F121E0853009
:1012B00039F630E0E5E0F0E0EC0FFD1FE30FF11D43
:1012C000F0804FB7F894D8011196EC911197F0E0A7
:1012D000CF01019612966C9170E00E940F2FD801F9
:1012E0005C915817190649F44FBF3F5F321710F34E
:1012F000A7CF23E0DECF22E0DCCF13968D919C9127
:101300001497E80FF91FF08211968C91119790E0D5
:10131000019612966C9170E00E940F2FF801818364
:10132000E3CF27960FB6F894DEBF0FBECDBFDF9197
:10133000CF911F910F91FF90089587E797E79093C2
:1013400001088093000888E19AE00FB6F894A89508
:10135000809360000FBE90936000FFCF9C014FB759
:10136000F8948091680290916902A0916A02B0910C
:101370006B024FBF821B930B08952FB7F8946091B7
:1013800068027091690280916A0290916B022FBF8E
:1013900008959C01FC0132969FEF80E04191461731
:1013A00051F09F3F19F4411101C0982F8F5F863093
:1013B000A9F79F3F09F40895290F311D97FD3A952C
:1013C000F901628308958091630281111092630292
:1013D00008958091620290916102892B9091600240
:1013E000892B8093A60190916302992391F0892B18
:1013F0008093A60120E088EA91E0FC013191CF01C1
:1014000031112F5FF1E08E3A9F07B9F721110E9449
:10141000E309E091C802F091C902309731F00280EF
:10142000F381E02D86EA91E009940895E92FEE0F0B
:10143000E90FEE0F8E0F982F9770869586958695FB
:1014400025E0829FF0011124EF5BFD4F50E040E06A
:1014500080E0219130E0092E02C0369527950A944C
:10146000E2F721703327042E01C0220F0A94EAF715
:10147000822B4F5F5F4F4530510559F70895E92F93
:10148000EE0FE90FEE0F8E0F982F977041E001C01D
:10149000440F9A95EAF786958695869595E0899FFB
:1014A000F0011124EF5BFD4F30E020E070E051913E
:1014B000DF011197CB01022E02C0969587950A9401
:1014C000E2F7817081958527842385278C932F5F90
:1014D0003F4F2530310559F70895609333047093D9
:1014E0003404809335049093360410926102109274
:1014F00060020C94E9090F931F936091330470917B
:10150000340480913504909136048B019C0106705F
:10151000112722273327063011052105310529F42B
:1015200068601F910F910C946D0A677FFACF0F933B
:101530001F9341E050E060E070E004C0440F551F8D
:10154000661F771F8A95D2F7CB01BA016095709517
:1015500080959095009133041091340420913504C6
:101560003091360460237123822393231F910F91BE
:101570000C946D0A90915F028095892380935F029D
:10158000282F277039F4282F082E000C330B9217C0
:10159000130621F49091B90292FF07C085958595B5
:1015A00085950E94970A10925F0208950F931F93EA
:1015B00041E050E060E070E004C0440F551F661F3A
:1015C000771F8A95D2F78091330490913404A091CB
:1015D0003504B09136048A019B01082B192B2A2B64
:1015E0003B2BC901B8011F910F910C946D0A6093B8
:1015F0006402709365028093660290936702109272
:101600006102109260020C94E9098091400290916D
:101610000F02981301C008958F5F8770FACF882357
:1016200041F08095909162028923809362020C942C
:10163000E9090895882339F090916202982B9093DC
:1016400062020C94E9090895882309F459C09CEFBB
:10165000980F913A78F4E8EAF1E02EEA31E09191BE
:10166000891303C0DF0111971C922E173F07B9F7AA
:101670000C94E90990E2980F983088F4877021E083
:1016800030E0A90102C0440F551F8A95E2F7CA0154
:10169000809590916202892380936202E9CF9BE555
:1016A000980F9330B0F48091050290910602892B37
:1016B00039F11092060210920502E091C802F091F1
:1016C000C9023097E9F00680F781E02D90E080E0D4
:1016D0000994885A8731A0F48091070290910802FA
:1016E000892B71F01092080210920702E091C80253
:1016F000F091C902309721F00084F185E02DE6CF0A
:101700000895CF93C82F8823A1F18CEF8C0F813AD5
:10171000F8F4E8EAF1E0DF018D91C81761F081E0AB
:10172000AE3AB807C9F76C2F86EA91E00E94C90962
:10173000CF910C94E9098191C81303C0DF0111977F
:101740001C9281E0EE3AF807B1F70E94E909EBCF6D
:1017500080E28C0F883068F4C77021E030E001C06F
:10176000220FCA95EAF780916202822B809362026F
:10177000DFCFCF910895E091C802F091C902309770
:1017800021F00190F081E02D099480E00895FA01A4
:10179000811101C0FB01099480911F03982F9E7F46
:1017A00071F480911F038170826080931F03809188
:1017B0002203893718F088E7809322030895843044
:1017C00080F7F5CFF894E82FE295EF70F0E031A1C3
:1017D000282F2F7081E090E001C0880F2A95EAF74A
:1017E000982F9095932391A392A1892B82A378940B
:1017F00008959091B80292FF06C0282F28712830D2
:10180000F9F4877F846093FF06C0282F2871283160
:10181000F1F4877E84612091B90220FF06C0382F41
:1018200038713830D9F4877F816021FF06C0282FB6
:1018300028712831D1F4877E816194FD877E0895D7
:10184000282F24712430F9F68B7F8860DCCF282F75
:101850002471243101F78B7E8861DDCF382F3171FF
:10186000313019F78E7F8860E0CF282F2171213128
:1018700021F78E7E8861E1CF10926202E8EAF1E002
:1018800086E0DF011D928A95E9F7109261021092BD
:1018900060020C94E9091F93CF93DF93CDB7DEB7B5
:1018A000AA970FB6F894DEBF0FBECDBF8BE393E0CF
:1018B0002091F100FC012193CF01F3E083349F07D5
:1018C000B9F780913C03833009F46FC0B8F48130DC
:1018D00009F446C0823009F4B0C08091E80083FF6B
:1018E0008CC280913B0390913C039A3008F085C2F2
:1018F000E92FF0E0EA59FD4C0C94232F8A3009F4CB
:101900008BC08B3009F46EC0893039F780913B036E
:10191000813219F780913F0390914003892BE9F6BA
:101920008091E800877F8093E8008091E80082FF43
:1019300037C09091F3008091F200029729F48091D2
:10194000F1008B7F813021F48091F10080932E0390
:101950008091E8008B778093E8000E947A07BDCFE2
:1019600080913B03813A09F0B8CF8091E800877FEE
:101970008093E80080913F0390914003892B61F4AC
:1019800068E08FE293E070E00E942C088091E8000C
:101990008B778093E800A1CF60E090E080E0F3CF08
:1019A000809139038111C1CF98CF80913B03813A57
:1019B00009F093CF80913F0390914003892B09F068
:1019C0008CCF8091E800877F8093E8008091E800C9
:1019D00080FFFCCF80911E018093F1008091E80090
:1019E0008E77B9CF80913B03813209F076CF809119
:1019F0003F0390914003892B09F06FCF8091E8005D
:101A0000877F8093E8000E947A0780913D0380934E
:101A10001E010E943C0C61CF80913B03813209F092
:101A20005CCF8091E800877F8093E8000E947A076E
:101A300080913E0380932D0350CF80913B03813AE8
:101A400009F04BCF8091E800877F8093E800809178
:101A5000E80080FFFCCF80912D03BECF803899F045
:101A6000823809F0CAC180913F038F70873008F037
:101A7000C4C18093E9008091EB0085FB882780F941
:101A80001092E90006C080913703909138039111BC
:101A900082609091E800977F9093E8008093F10036
:101AA0001092F1008091E8008E77A3C1882309F499
:101AB00091C1823009F0A1C180913D03811194C18F
:101AC00080913F038F702FEF280F263008F095C1CB
:101AD0008093E9002091EB0020FF86C1933031F420
:101AE0008091EB0080628093EB007EC19091EB00CF
:101AF00090619093EB0021E030E001C0220F8A95C5
:101B0000EAF72093EA001092EA008091EB008860E7
:101B1000EACF811172C110913D031F778091E300DC
:101B20008078812B8093E3008091E800877F809309
:101B3000E8000E947A078091E80080FFFCCF809146
:101B4000E30080688093E30082E0111183E08093DA
:101B5000390353C18058823008F04FC120913D03B2
:101B600030913E032C3D83E03807A1F583E08A8362
:101B70008AE289834FB7F894DE01139620E03EE0B5
:101B800051E2E32FF0E050935700E49120FF03C0AF
:101B9000E295EF703F5FEF708E2F90E0EA30C0F07B
:101BA000C7968D939D932F5F243159F74FBF809136
:101BB000E800877F8093E8006AE270E0CE0101963A
:101BC0000E942C088091E8008B778093E80015C173
:101BD000C096E7CF40913F0350914003832F992750
:101BE0008330910501F160F48130910509F471C0F1
:101BF000029709F002C186EA90E0E5ECF4E031C01A
:101C00008132910509F459C08232910509F0F5C07D
:101C10004115510509F467C04130510509F0EDC087
:101C2000E3E6F4E01EC033272130310509F43DC05E
:101C30002115310561F02230310509F0DEC0EDE7F4
:101C4000F5E0E4918E2F90E0EDE7F5E007C0EDE9D7
:101C5000F5E0E4918E2F90E0EDE9F5E0009709F4CE
:101C6000CCC02091E800277F2093E8002091410319
:101C7000309142038217930708F49C0140E021153C
:101C80003105B1F5411134C08091E80082FD9ACF51
:101C900080913903882309F495CF853009F492CFD8
:101CA0008091E80083FFF0CF8DCFEBE8F5E0E49181
:101CB0008E2F90E0EBE8F5E0D1CF4115510571F0A2
:101CC0004130510509F099C089E090E0E0EFF4E07F
:101CD000C8CF82E190E0EBE6F5E0C3CF89E090E089
:101CE000E7EDF4E0BECF80E490E0E5E8F4E0B9CFC2
:101CF00080913903882309F465CF853009F462CFD8
:101D00008091E80083FD5ECF8091E80082FDBCCF2A
:101D10008091E80080FFB3CF9091F3008091F200B2
:101D20002115310519F08830910550F041E00897F0
:101D300009F040E08091E8008E778093E8009FCF23
:101D400044914093F1003196215031090196E8CF3A
:101D5000803809F052C08091E800877F8093E800C6
:101D600080913A038093F1009DCE811146C010917D
:101D70003D03123008F041C08091E800877F8093D6
:101D8000E80010933A030E947A07112311F084E0CF
:101D900005C08091E30087FDFACF81E0809339038D
:101DA00042E061EC81E00E94990742E261EC82E04E
:101DB0000E94990742E260EC83E00E94990742E3A7
:101DC00061E884E00E94990742E361E885E00E94AF
:101DD000990713C080913D03813079F481E09330FD
:101DE00009F080E0809338031092E9008091E800C8
:101DF000877F8093E8000E947A078091E80083FF44
:101E00000AC08091E800877F8093E8008091EB0012
:101E100080628093EB00AA960FB6F894DEBF0FBEE7
:101E2000CDBFDF91CF911F910895CF93DF93682F9E
:101E300081E06A3019F06D3029F480E0DF91CF91B4
:101E40000C94A40F809140069091410626E0FC017D
:101E5000AAE3B6E001900D922A95E1F7603E08F4FE
:101E60005AC026E0FC0111922A95E9F7C09140067C
:101E7000D091410646E050E0BE018AE396E00E9420
:101E8000702F9E012A533440892B41F1C90145E04E
:101E9000969587954A95E1F741E050E0BA0102C076
:101EA000660F771F8A95E2F7CB0160913804709135
:101EB0003904862B972BB9016B5F7F4FE5E0769550
:101EC0006795EA95E1F702C0440F551F6A95E2F75E
:101ED000842B952B90933904809338042A5F3F4FCD
:101EE00040913704642F70E0C9010E94FB2E481B0B
:101EF000463010F4240F311D211572E0370710F021
:101F000030E020E0265C3B4F3093410620934006B2
:101F1000DF91CF910895F6E06F9FB00111246F55C6
:101F20007A4F46E050E00E94672FA0CFCF93DF9317
:101F3000EC01FE018491811103C0DF91CF910895DE
:101F40000E94150F2196F5CFCF93382FE0914006D0
:101F5000F0914106EA53F44020913704622F70E07B
:101F6000CF010E94FB2E281B822F332361F066E0F5
:101F70000E94EF2EC82FC15010F4CF91089580E237
:101F80000E94150FF8CF9F01280F311D21153240F7
:101F900018F080E0F0E0E0E08E0F9F2F911D865C4E
:101FA0009B4F9093410680934006E7CFCF92DF92FC
:101FB000EF92FF920F931F93CF93DF936C017B01FE
:101FC00064E670E088E70E94492CEC0197FD12C09E
:101FD00010E000E0F601E00FF11F849164E670E08C
:101FE0000E94A52CEC01892B29F40F5F1F4F0E15C1
:101FF0001F0581F70E94282DCE01DF91CF911F91FF
:102000000F91FF90EF90DF90CF900895CF93C09104
:10201000090380910C038823D1F00E94BD09605A06
:1020200075418F4F9F4F6093050370930603809314
:10203000070390930803C11108C062E070E08CE2CE
:1020400093E00E94D60F892B29F0C09109038C2FB1
:10205000CF91089581E080930903F7CFCF9384E077
:1020600090E00E941C32C82F82E290E00E941C3255
:10207000982F8C2FCF9108950F931F93CF93DF93B9
:10208000C42FD0E0CC0FDD1F2CE0629FC00DD11D0E
:10209000112430E6839FC00DD11D1124CE018796F7
:1020A0000E941C32082F10E0102F0027CE018896C6
:1020B0000E941C329801282BC901DF91CF911F91FA
:1020C0000F910895462F843038F4783028F4663024
:1020D00018F4672F0C943C1090E080E00895CF93A3
:1020E000DF930E946210EC018238910589F1B8F506
:1020F0008133910509F492C028F58932910509F4DC
:1021000086C08A9709F491C0C11523E5D20708F06B
:10211000ACC0C11532E5D30708F011C1C11540E2CA
:10212000D40708F090C0C11581E0D80730F5C53A52
:10213000D10508F081C0C430D105F8F4C130D10513
:10214000E1F040C08533910509F45AC0C997E1F622
:102150008091B802837089F0C0EED0E00EC0833E5B
:10216000910599F170F4803E910501F1823E91054F
:1021700059F68091B80282FD21C0CE01DF91CF9146
:102180000895863E910561F1873E910571F1843E87
:10219000910509F0B9CF8091B90281FFEECF80910E
:1021A000B802C7EED0E084FD0DC0E7CF8091B80241
:1021B00080FDF4C09091B90290FFDFCFC3EED0E074
:1021C00084FFDBCFD0E0C0E0D8CF8091B80282FDA1
:1021D000E8C09091B90290FDBFCF84FFCECFF2CF7F
:1021E0008091B80283FDDDCFC8CF8091B80283FD16
:1021F000DBC09091B90291FFF0CFC4EED0E0BDCF2B
:102200008091B80285FFB9CFC9E2D0E0B6CF809106
:10221000B80285FFB2CFC5E3D0E0AFCF8091B8025E
:1022200086FFABCFCAE2D0E0A8CF8091B80286FF8C
:10223000A4CFC1E3D0E0A1CFCE01805E9109089781
:1022400008F49BCFBFCFC11591E5D90708F072C044
:10225000C11520E5D20708F050C0C11530E4D307FE
:1022600008F4B0CFDF70D06A88CFC11546E5D40737
:10227000F0F4C11585E5D80708F077C0C11594E5DD
:10228000D90708F06DC0CE018370992721E030E0B6
:1022900002C0220F331F8A95E2F7C695C69590E2D9
:1022A000C99FE0011124C22BD32BDA6866CFC11578
:1022B0002AE5D20778F4C11539E5D30708F060C0E4
:1022C000C11548E5D40708F47DCFDC2FCC27C06FBB
:1022D000D06A53CFCE0190568115904208F072CF4C
:1022E0008D2F8F710E94F90B90E0982F88278827F7
:1022F0009F719C012C2BE90141C0CE01E4E0969531
:102300008795EA95E1F783702C2F26952695237003
:1023100040E2249F90011124382B8C2F8370C1E060
:10232000D0E002C0CC0FDD1F8A95E2F7C22BD32B81
:10233000DC6823CFDC2FCC27C16FD06A1ECFCE0143
:102340008370992721E030E002C0220F331F8A9565
:10235000E2F7C695C69580E2C89FE0011124E6CF5A
:10236000DC2FCC27C46FD06A08CF8C2F0E94F90BCA
:10237000C82FD0E0DC2FCC27CC27DF71D062FDCE78
:102380008C2F8F700E94F90B34E0D695C7953A9543
:10239000E1F7CF709C2FEC01D069EFCEC9E3D0E01C
:1023A000ECCEC2EED0E0E9CEC6EED0E0E6CEBF92F3
:1023B000CF92DF92EF92FF920F931F93CF93DF9311
:1023C0008C01C0903304D0903404E0903504F09038
:1023D00036048091640290916502A0916602B091EA
:1023E0006702C82AD92AEA2AFB2ACFE1D0E0BC2E0C
:1023F000D701C6010C2E04C0B695A7959795879571
:102400000A94D2F780FD0EC0219788F7B12C8B2D4E
:10241000DF91CF911F910F91FF90EF90DF90CF90C0
:10242000BF900895B8018C2F0E946F10019761F33F
:10243000EECFCF93DF93EC010E94D711BE01DF9165
:10244000CF910C946F100E941912292F2F70929522
:102450009F7092509E3078F4E92FF0E0E059FD4CE7
:102460000C94232F803F19F020F4883E20F481E063
:102470000895843FE1F380E00895883EC0F3813FF2
:10248000D1F7F5CF822F86958695869508956F9220
:102490007F928F929F92AF92BF92CF92DF92EF92F4
:1024A000FF920F931F93CF93DF938CEAC82E81E0A6
:1024B000D82E93E9E92EF12CE701C056D109360157
:1024C0001BC0F50185909490692DC8010E9430329F
:1024D000682DC80101960E94303282E0A80EB11C1E
:1024E0000E5F1F4FC017D10761F78CE0680E711C9B
:1024F0002C96CE15DF0529F08E010C5011095301E1
:10250000E0CF7E0180E6E80EF11C80E6C80ED11C0B
:1025100083E1E81682E0F80679F6DF91CF911F910A
:102520000F91FF90EF90DF90CF90BF90AF909F9072
:102530008F907F906F900895CF93C091B902C2FBA6
:10254000992790F9981781F080FBC2F9C093B902DE
:102550006091B80284E090E00E9430326C2F82E2F9
:1025600090E0CF910C943032CF910895CF93DF93C8
:10257000C7EAD1E060E0CE010E9430322196C11559
:1025800084E0D807B9F7DF91CF910895CF93DF9317
:10259000EC0181E08093E9008FEF9091E800815099
:1025A00095FD06C095ED9A95F1F700008111F5CFE4
:1025B0008091E80085FF14C050E040E068E070E0E2
:1025C000CE010E9426078091E8008E778093E80074
:1025D00088E0FE01AFE2B3E001900D928A95E1F749
:1025E000DF91CF9108951F93CF93DF93182FD0E001
:1025F000C0E0893311F4C0E5D0E0812F0E94810B47
:10260000209731F4812FDF91CF911F910C94240BEF
:102610008FE99FE00197F1F700C000002197F0CF0C
:1026200080911F0380FD0AC0E3EBF1E0118210826C
:102630001282339652E0E430F507C1F7539A3BB16A
:10264000377F2BB128604FB7F89483EB91E0FC0102
:102650005191CF0168E02BB9000000C057FF3BB992
:10266000550F000000C000C000C03BB900C06A9513
:1026700091F7F2E084309F0751F74FBF8FE594E068
:102680000197F1F700C000000895EFE1F3E08081C9
:102690008E7F8083E4ECF2E08281816082832FEF81
:1026A00080E792E0215080409040E1F700C00000B8
:1026B0000C9410138091B201811110C08091D80048
:1026C00080618093D8008AE18A95F1F700C08091FB
:1026D000D90080FF0AC081E08093B20181E090912F
:1026E000B201913009F080E0089582E08093B20158
:1026F0000E94D60610923903F1CF6AEE7EEF90E089
:1027000080E00E944E3260E082E090E00E94303231
:1027100060E083E090E00E943032109264021092F8
:102720006502109266021092670260E084E090E019
:102730000E94303260E082E290E00E94303260E03D
:1027400085E090E00E94303260E086E090E00E94F8
:1027500030326FEF87E090E00E94303240E050E08E
:10276000BA0188E090E00E94423260E08DE090E0A3
:102770000E94303240E050E0BA0188E190E00E94CF
:10278000423260E087E190E00E94303240E050E069
:10279000BA018CE190E00E94423270E060E080E299
:1027A00090E00E944E3240E050E0BA0188E190E0B3
:1027B0000E94423240E050E0BA018FE090E00E9477
:1027C000423240E050E0BA0183E190E00C944232A2
:1027D000CF92DF92EF92FF926B017C010E94CC0BB3
:1027E000B701A60188E090E0FF90EF90DF90CF90D6
:1027F0000C9442328F929F92AF92BF92CF92DF920F
:10280000EF92FF920F931F93CF93DF93182FC62F52
:10281000D42F822E00911F0300FFD0C0E02FE69539
:10282000F0E0E05CFE4F80818093C402802F8E7FB9
:102830008230F9F4E42F493708F0E8E7F0E0E45596
:10284000FF4FC11146C02491F22FE22F00FF11C0AB
:10285000A3EBB1E084E092E01196EC9311972C93F6
:102860001296FC93129713968A179B07A9F70E945A
:10287000101380912003811308C0809121038C13D1
:1028800004C0809122038D1729F08091C6028260D6
:102890008093C60210932003C0932103D093220398
:1028A000882009F48BC060911F03709120038091F0
:1028B000210390912203DF91CF911F910F91FF90FF
:1028C000EF90DF90CF90BF90AF909F908F900C943F
:1028D000E813EC2EF12CE4919E2ECE2ED12C26E086
:1028E000129FC00111242FEF30E0B9010E94FB2E8E
:1028F000812F90E0880F991FF5E5F69FA001F79FC3
:10290000500D1124841B950BB82EBB0CB80EA901D9
:102910004E195F094C9DC0014D9D900D5C9D900D21
:102920001124F92FCB9DA0011124452F5527D90142
:10293000A41BB50BAC9DA001AD9D500DBC9D500DD1
:102940001124D901AB19B1095D01AE9CD001AF9C36
:10295000B00DBE9CB00D1124AB2FBB272A1B3B0B27
:102960002C9DD0012D9DB00D3C9DB00D11242B2F21
:1029700062307105A1F050F46115710509F466CF5C
:102980006130710581F0292FF52F60CF643071051A
:1029900069F080F06630710509F458CFF4CF2E2F1E
:1029A000E92FFB2F53CF2E2FE52F50CF292FFE2FAE
:1029B000EB2F4CCFE92FF92D252F48CFDF91CF9169
:1029C0001F910F91FF90EF90DF90CF90BF90AF904D
:1029D0009F908F900895EFE1F3E0438121E1421B46
:1029E00008F440E021E0628181810C94FA13EFE168
:1029F000F3E0438121E1420F08F44FEF21E06281CF
:102A000081810C94FA13EFE1F3E0628121E1621B12
:102A100008F460E021E0438181810C94FA13EFE136
:102A2000F3E0628121E1620F08F46FEF21E043815E
:102A300081810C94FA13EFE1F3E0818121E043817D
:102A400062818A500C94FA13EFE1F3E0818121E076
:102A500043816281865F0C94FA138091230388235B
:102A600019F081508093230360911F03709120031C
:102A700080912103909122030C94E8138091230309
:102A8000833018F48F5F8093230360911F0370914C
:102A9000200380912103909122030C94E8138091EC
:102AA0001F0380FF1EC08170826080931F0380918E
:102AB000C60281608093C602662351F060911F03B5
:102AC0007091200380912103909122030E94E813CA
:102AD00020E04091220360912103809120030C9417
:102AE000FA13089580911F038695815009F481E0BF
:102AF00061E00C944F1561E081E00C944F15EFE11B
:102B0000F3E083E0808311828FEF828388E7838301
:102B10001482A4ECB2E012968C9112978360129604
:102B20008C9360817181828193810C94E8131F9250
:102B30000F920FB60F9211242F933F934F935F93F1
:102B40006F937F938F939F93AF93BF93CF93DF93B5
:102B5000EF93FF93D091E900DF708091EC00C82FD4
:102B6000C17080FDC0E81092E9008091F000877F7D
:102B70008093F00078940E944B0C1092E9008091B1
:102B8000F00088608093F000CD2BCF70C093E900F7
:102B9000FF91EF91DF91CF91BF91AF919F918F9175
:102BA0007F916F915F914F913F912F910F900FBE49
:102BB0000F901F9018951F920F920FB60F9211242D
:102BC0002F933F934F935F936F937F938F939F9335
:102BD000AF93BF93EF93FF938091E10082FF09C011
:102BE0008091E20082FF05C08091E1008B7F80939D
:102BF000E1008091DA0080FF24C08091D80080FF3E
:102C000020C08091DA008E7F8093DA008091D90015
:102C100080FF9BC080E189BD82E189BD09B400FECF
:102C2000FDCF81E08093390380912C03811109C08D
:102C30000E94D6060E94CB078091E20084608093B8
:102C4000E2008091E10080FF17C08091E20080FFE8
:102C500013C08091E2008E7F8093E2008091E200B9
:102C600080618093E2008091D80080628093D800D8
:102C700019BC85E0809339038091E10084FF29C06D
:102C80008091E20084FF25C080E189BD82E189BD99
:102C900089B5982F917080FFFBCF8091D8008F7DF0
:102CA0008093D8008091E1008F7E8093E100809135
:102CB000E2008F7E8093E2008091E2008160809349
:102CC000E20080913A03882309F445C084E08093B0
:102CD00039038091E10083FF27C08091E20083FFE8
:102CE00023C08091E100877F8093E10082E08093A0
:102CF000390310923A038091E1008E7F8093E100C6
:102D00008091E2008E7F8093E2008091E2008061FA
:102D10008093E20042E060E080E00E9499078091A9
:102D2000F00088608093F000FF91EF91BF91AF9128
:102D30009F918F917F916F915F914F913F912F91D3
:102D40000F900FBE0F901F90189519BC1092390369
:102D500010922C0376CF8091E30087FD93E090934F
:102D60003903B7CF0F931F930E945A13882321F082
:102D70001F910F910C94BD090E94BD090091B402EE
:102D80001091B5022091B6023091B702600F711F09
:102D9000821F931F1F910F910895CF92DF92EF92A0
:102DA000FF926B017C010E945A1381110EC00E9498
:102DB000BD09C61AD70AE80AF90AC092B402D0922D
:102DC000B502E092B602F092B702FF90EF90DF906A
:102DD000CF90089578941F921FB61F9211248F935D
:102DE0009F93AF93BF938091680290916902A091E5
:102DF0006A02B0916B020196A11DB11D8093680219
:102E000090936902A0936A02B0936B02BF91AF9155
:102E10009F918F911F901FBE1F9018952FB7F89408
:102E20008091680290916902A0916A02B0916B0250
:102E30002FBF08950F931F93CF93DF93C62FD42FE7
:102E4000022FFC0182818823A1F0609332040E944A
:102E50000E179093310480933004C77081E001C055
:102E6000880FCA95EAF7DF91CF911F910F910C94CB
:102E70001A0B80913204681335C080913004909110
:102E800031040E94AE09883C910560F510E21D0FE7
:102E9000CD17B9F080E28C0F883040F4C77081E024
:102EA00001C0880FCA95EAF70E940F0B183048F44A
:102EB00081E09D2F977001C0880F9A95EAF70E94D4
:102EC0001A0B802F0E94F312183098F4D77081E00B
:102ED00001C0880FDA95EAF7DF91CF911F910F912A
:102EE0000C940F0BC77081E001C0880FCA95EAF7F8
:102EF000F3CFDF91CF911F910F9108953F924F92A1
:102F00005F926F927F928F929F92AF92BF92CF9279
:102F1000DF92EF92FF920F931F93CF93DF9300D036
:102F200000D00F92CDB7DEB77C01FC018381948184
:102F3000892B39F08081918189238F3F11F00C9486
:102F4000AF1F0F900F900F900F900F90DF91CF91C8
:102F50001F910F91FF90EF90DF90CF90BF90AF90B7
:102F60009F908F907F906F905F904F903F900895CB
:102F70000E94D711182F682F89819A810E943F0AD9
:102F800069817A81812F0E9462108C01F701828110
:102F9000882309F4D8C7C80182519F45409708F09B
:102FA00056C78FEF93E00E941C32025157EA852EDC
:102FB00099249394882381F180915F02877009F4AA
:102FC000C0CFF7018281882309F4BBCF82E00F9044
:102FD0000F900F900F900F90DF91CF911F910F9155
:102FE000FF90EF90DF90CF90BF90AF909F908F9029
:102FF0007F906F905F904F903F900C94BA0A81142D
:10300000F4E09F06C9F2C4010E941C32811101C084
:1030100001502FEF821A920A0111F1CF1C821B82FC
:10302000442443944AE0342E84010F5F1F4FC401AF
:103030000E941C3289831A82882309F4BDCF9FEF36
:10304000980F9330F8F48A83498232E0830E911C02
:10305000C8010E941C328B83882309F4ADCF8E01F6
:103060000F5F1F4FF80120812223F1F2213009F078
:1030700043C091818281913039F40E5F1F4F0E94CD
:10308000F31208C04801EBCF923039F40E5F1F4FA6
:103090000E94810B0F5F1F4FE5CF933029F40E5F25
:1030A0001F4F0E94240BF6CF943019F00F5F1F4F73
:1030B000F1CF0E5F1F4F30E020E0B8016F5F7F4F10
:1030C000F80141818053990B8A30910550F02150CD
:1030D000310900F38FE99FE00197F1F700C000008C
:1030E000F6CF329EF001339EF00D11249C012E0F7D
:1030F0003F1F842F8B01E1CFE22FF0E0E25AFC4F1B
:103100005490822F86958695869590E0FC01E25B2F
:10311000FC4F64902770712C022E02C07594679446
:103120000A94E2F7E1E06E227724FC01E25CFC4FB6
:10313000A490B12C022E02C0B594A7940A94E2F791
:10314000F1E0AF22BB24FC01E25DFC4FC490D12C26
:1031500002C0D594C7942A95E2F721E0C222DD246B
:103160006114710419F081EE0E94810BA114B10465
:1031700019F086EE0E94810B852D0E94F312AB2878
:1031800019F086EE0E94240B672819F081EE0E9448
:10319000240BCD2809F47ECF8CE271CF81E00E9410
:1031A000D60A0E947B0A08CF81E00E94970AF9CFD5
:1031B00082E0F5CFC80162C601382CE5120709F498
:1031C00098C102383CE5130709F0A0C6F7018281D7
:1031D000882309F4F1CE80910F03982F9F709930C6
:1031E00008F0EACE9F5F91C10C396CE51607B8F57F
:1031F00002397CE5170708F0AFC100398CE51807E4
:1032000009F496C101399CE5190709F07FC6F70159
:103210008281882309F4D0CE20910F03822F8595D7
:1032200085958595859586300CF0C6CE91E0980FF2
:103230009295907F9595959595959595392F329581
:10324000307F2F70232B20930F0318160CF0B4CE71
:1032500097FFB2CE8295807F922F9F7058C10C3914
:10326000ECE51E0709F48AC10D39FCE51F0709F0DA
:103270004DC6F7018281882309F49ECE8091100308
:10328000982F9F779F3709F497CE933708F08EC118
:10329000935F9F77807888C1043B2CE5120709F47F
:1032A000E3C1D0F5003B6CE5160709F4B5C1E8F4BD
:1032B0000E3A8CE5180709F490C10F3A9CE51907FE
:1032C00009F024C6F7018281882309F475CE209184
:1032D0001003322F331F3327331F90911103892F8F
:1032E0008770880F832B8F5F8AC1F70122818091BD
:1032F000100390911103023BFCE51F0709F4AAC1DA
:1033000008F49EC140E021114FE7881F8827881FDD
:103310009770990F62E490C1073B6CE5160709F4BA
:10332000B5C190F4053B8CE5180709F49DC1063B37
:103330009CE5190709F0EAC5F70182818111A4C152
:103340008FEF80930E0338CE093BECE51E0709F49E
:10335000D6C108F4BDC10A3B2CE5120709F0D6C559
:1033600080911003982F991F9927991F809111031D
:103370008770880F892BF70192816FEF7FE1992386
:1033800009F4CEC10E94BA0517CE053FECE51E0731
:1033900009F4D5C108F4CFC1063F2CE5120709F4A2
:1033A000D2C1F7018281882309F4ECC5109232045E
:1033B0000230FCE51F0708F4A8C206312CE512070D
:1033C00030F0C8018A5F9C45099708F09EC20E94B0
:1033D0002E109093B9028093B80200313CE5130798
:1033E00009F462C208F0F3C108307CE5170709F45C
:1033F0004DC208F0C2C104309CE5190709F43EC271
:1034000008F0A8C10230FCE51F0709F431C2809121
:10341000B802826003301C4509F42DC26091B802E5
:103420001091B90284E090E00E943032612F82E274
:1034300090E00E9430320E943C0CBECD809110037F
:10344000982F991F9927991F409111034770440F96
:10345000492B8F7721ED200F30E0B90164597D4F62
:103460006B01FB012081F7019281992309F12F3F24
:1034700009F0A2CD10910F03912F9F70159515950E
:10348000159515951F52FCE09F9F100D1124100FEC
:10349000212F2F774069E0914303F0914403082FD7
:1034A00063E070E083E493E00995F601108384CD36
:1034B0002F3F61F02F774068E0914303F091440380
:1034C000082F63E070E083E493E009958FEFF60145
:1034D000808372CDF7018281882309F46DCD07576F
:1034E000802F8F7000910F03007F082B00930F0334
:1034F00063CDF7018281882309F45ECD80910F03AB
:10350000982F9F7009F458CD915F9F70807F892B11
:1035100080930F0351CDF7018281882309F44CCDAC
:103520000958802F8295807F00910F030F70DDCFA7
:10353000F7018281882309F43FCD80910F03982FF2
:1035400095959595959595959B3F0CF435CD915F07
:103550009295907F8F70DBCFF7018281882309F4E9
:103560002BCD02598EE0089F802D11248F7700917A
:1035700010030078082B009310031ECDF701828101
:10358000882309F419CD80911003982F9F7709F4AF
:1035900013CD80789F3721F48567809310030CCD7D
:1035A0009D30D8F39D509F77892BF7CF8F67F5CF4C
:1035B000F7018281882309F4FFCC0E598091100312
:1035C00000FB87F980931003069507708091110323
:1035D000887F082B00931103EFCCF70182818823A9
:1035E00009F4EACC20911003322F331F3327331F05
:1035F00090911103892F8770880F832B815F382F5B
:103600003F7080FB27F920931003832F8695987FC6
:10361000982B90931103D0CCF7018281882309F471
:10362000CBCC90911003991F9927991F809111037A
:103630008770880F40E06BE7892B0E94D305BCCCD4
:1036400040E021114FE7881F8827881F9770990F46
:1036500060E4F2CF40E021114FE7881F8827881FE0
:103660009770990F61E4E8CFF701828140E0811102
:103670004FE790911003991F9927991F809111038B
:103680008770880F63E4D8CF81E05BCEF701828139
:10369000882309F491CC90911103292F2695269522
:1036A00026952F7081E0820F8F70880F880F880F0A
:1036B0009778892B80931103982F987709F07CCC09
:1036C000220F220F220F8778822B8093110374CC54
:1036D000F7018281882309F46FCC80911103982F20
:1036E000987709F469CC982F969596959695915F61
:1036F0009F70990F990F990F8778892BE6CF80914A
:103700001003982F991F9927991F80911103877093
:10371000880F892BF701928160E070EE911132CE13
:1037200070E060E02FCE27E245EE65EE08C426E2A9
:1037300041EE60EE04C427E245EE64EE00C426E2EA
:1037400041EE62EEFCC327E245EE66EEF8C328E2E6
:1037500041E0EBCF8091B802806106303CE5130771
:1037600009F489C08091B802886007301C4508F4CC
:1037700082C08091B80280627EC08091B8028D7F45
:103780000C307CE5170709F476C070F48091B8021C
:103790008C600A309CE5190709F46DC008F47AC002
:1037A0008091B8028E7F67C08091B802877F0E300B
:1037B000FCE51F0709F45FC08091B8028B7F0F30D2
:1037C0001C4508F458C08091B8028F7E54C00B3F4E
:1037D0003CE5130709F456C030F503317CE51707C3
:1037E00009F46AC078F401319CE5190709F460C056
:1037F00002311C4509F012CE0E943C0C8091B802A7
:103800008F7739C00531FCE51F0709F45DC008F466
:1038100071C08091B90281600A3F1C4509F0FECD5C
:103820008093B902FBCD0F3F6CE5160709F448C041
:1038300070F40D3F8CE5180799F18091B9028E7FE5
:103840000E3F1C4568F38091B9028360E9CF0130D7
:10385000EDE51E0709F457C008F442C060E00230ED
:103860001D4509F0DBCD8EE090E00E943032D6CDD0
:103870008091B80281608093B802D0CD8091B80267
:103880008460F9CF8091B9028260CACF8091B8027A
:103890008064F1CF0E943C0C8091B8028068EBCF2D
:1038A0008091B9028D7FBCCF8091B8028F7DE3CF2C
:1038B0008091B8028F7BDFCF8091B802837FDBCF0E
:1038C0008091B9028C7FACCF8091B80282FB99279E
:1038D00090F921E0922790FB82F990FB83F9CBCFFE
:1038E0008091B902982F909591708E7F892B90FBD3
:1038F00081F996CF0E943C0C9091B802892F97FBDA
:1039000087F98058B8CF61E0AECF06313CE51307A8
:1039100009F0B9C3809162028A7A91E009F490E0DB
:103920009093040269E2811165E386EA91E00E94C6
:10393000C9090E94E90940CB8091040281110FC09E
:1039400089E2E8EAF1E02EEA31E09191891303C0BF
:10395000DF0111971C922E173F07B9F7EACF85E3D5
:10396000F0CF816080931F0361E086950E944F1520
:1039700023CB42E755E16BE775E10E94C70B1CCBF7
:103980004BE755E162E775E1F8CF4BE155E164E2C1
:1039900075E1F3CF4BEE54E167EF74E1EECF61E0F8
:1039A00081E0E4CF0E943C0C9FEFE4E3FCE0915007
:1039B000E040F040E1F700C000000E949D0981E076
:1039C00083C380E081C3C8010E94160AD82E8DC32C
:1039D000212F2F70B22E107F19F0B29490EFB922E0
:1039E000AA20C9F0BB2069F080E2800F883010F077
:1039F00081100BC080916202B82AB09262020E94CC
:103A0000E909802F0E94810B18C080916102B82AB9
:103A1000B0926102F4CF802F0E94240BBB2069F08A
:103A2000B094005E083010F081103DC080916202B9
:103A3000B822B09262020E94E9092C2D2850330B63
:103A40002430310510F40E94BB0BDD2009F479CA43
:103A500080915F0280FD75CAF70112828595859578
:103A600085950E94D60AC7010E947E1780915F0249
:103A70008595859585950F900F900F900F900F90DD
:103A8000DF91CF911F910F91FF90EF90DF90CF903A
:103A9000BF90AF909F908F907F906F905F904F906E
:103AA0003F900C94970A80916102B822B092610213
:103AB000C2CF312F3F70932E107F103219F09294A5
:103AC00080EF9822882071F061E0861681F1AA20AB
:103AD000D9F1BB2091F1F701858180FF92CF8F70E2
:103AE00085832BC0AA20B1F090916302892D892B88
:103AF000B11003C00E941A0BA0CF71E0B712FACF29
:103B00002091B90222FD99CF981709F496CF80939E
:103B1000630293CFB11006C00E94E309892D0E9471
:103B20000F0B8BCF81E0B81609F487CFF5CFAA2011
:103B300031F095E09B1508F480CF892DDBCFE4E0D0
:103B4000EB1508F47ACFEACFBB2041F3F9E38F12EB
:103B500009C02FEF37EE63E0215030406040E1F7BD
:103B600000C00000802F0E94240B67CF812F83703C
:103B700009F066C0A11061CF802F8295869587706D
:103B8000880F880F602F6F70862E912CB12CA12C7E
:103B9000082E04C0880C991CAA1CBB1C0A94D2F7DE
:103BA00040E050E0BA0104FF0FC04FE050E060E099
:103BB00070E004C0440F551F661F771F8A95D2F727
:103BC0004095509560957095812F86958695837068
:103BD000823019F1D8F400916402109165022091AD
:103BE000660230916702813069F0482959296A29B3
:103BF0007B29CB01BA0160237123822393230E9486
:103C0000F70A1BCF802A912AA22AB32ACB01BA0134
:103C1000682979298A299B29F2CF482959296A29B3
:103C20007B29009164021091650220916602309117
:103C30006702CB01BA016027712782279327DFCF64
:103C40008695AA2011F0812F8170882309F4F5CE82
:103C5000802F829586958770880F880F602F6F70F0
:103C6000862E912CB12CA12C082E04C0880C991CF6
:103C7000AA1CBB1C0A94D2F740E050E0BA0104FF32
:103C80000FC04FE050E060E070E004C0440F551FEB
:103C9000661F771F8A95D2F740955095609570956D
:103CA000812F869586958370823019F1D8F4009122
:103CB000330410913404209135043091360481305E
:103CC00069F0482959296A297B29CB01BA01602367
:103CD0007123822393230E946D0AAFCE802A912AFA
:103CE000A22AB32ACB01BA01682979298A299B29FA
:103CF000F2CF482959296A297B2900913304109170
:103D000034042091350430913604CB01BA01602788
:103D1000712782279327DFCF1F70AA2029F0812FD8
:103D20000E94D60A802FE6CE802F0E940F0B812F93
:103D30000E94970A82CE802F72EF871609F454C032
:103D4000781578F090EF891639F1E1EF8E1609F4C5
:103D500043C0AA2009F46BC0B11053CE812F8F71DC
:103D600040C0F3EF8F1609F444C024EF8212F1CF64
:103D7000AA2009F451C01F71812F0E94D60A809198
:103D8000B90282FD07C078E0179FC001112483604B
:103D900080935F02812F25C0AA20C9F034E03B1533
:103DA00008F44BCE1F7161E070E080E090E004C049
:103DB000660F771F881F991F1A95D2F70091330459
:103DC000109134042091350430913604A0CF65E081
:103DD0006B1508F432CEE6CF812F8F71AA2009F43B
:103DE000A7CF0E94D60A29CE812F8F71AA20C9F3AE
:103DF0009FCF60E070E0CB01AA2009F46CCF1F7167
:103E000061E070E080E090E004C0660F771F881FDB
:103E1000991F1A95D2F75FCF81E00E94BA0A81E01C
:103E20008B1508F00ACE82E00E94BA0A06CEBB20AB
:103E300059F0893309F096CE9FEFE7EEF3E0915009
:103E4000E040F040E1F78CCE812F8F7171CF0031CF
:103E5000FFE51F0709F4A2C901312FE5120709F494
:103E6000A7C9C8019056811530E2930728F0905EEB
:103E70008115904108F09EC9C801992720E28C3332
:103E8000910520F4FC01EE5BFE4F20811F922F93E1
:103E90009F938F93F70180811F928F9381811F924F
:103EA0008F938FE291E09F938F931F9288E18F937E
:103EB0008BEC92E09F938F930E947D2F0FB6F89426
:103EC000DEBF0FBECDBF0E3A3CE5130708F0E4C9D4
:103ED0000E396CE5160708F06BCB00397CE5170747
:103EE00008F082C903388CE5180708F014CB0138B4
:103EF0009CE5190708F060C90737ECE51E0708F0D4
:103F0000E9CA0F32FCE51F0708F098CA033F3CE5F9
:103F1000130709F40CCC08F038CA083D7CE51707F4
:103F200009F401CC093D8CE5180709F410CC073DD4
:103F30009CE5190709F035CA26E241EE61EEC7019A
:103F40000E941A1739C800313FE5130709F42CC93C
:103F500001316FE5160709F0B6CF82E026C985E08A
:103F6000DE01119601900D928A95E1F7F701228109
:103F700089819A8121110C94B8170E94160A182F72
:103F80000C94C0170631FCE51F0709F4D5CC8091CD
:103F900062028272093C2CE5120709F4FBCC08F09E
:103FA0004AC0053C6CE5160709F4EFCC70F5033CFC
:103FB0009CE5190709F4DDCC08F0E2CC023C1C4575
:103FC00009F084C080911F0380FFCBCC8E7F80934B
:103FD0001F0360911F037091200380912103909132
:103FE00022030E94E8138091C60281608093C6027A
:103FF0006FEF70E782E0615070408040E1F700C0F1
:1040000000000E9410130C94DC1743E055E16FE0B0
:1040100075E1073C2CE5120709F4AFCC44E255E109
:104020006BE175E1083C1C4508F4A7CC4FE055E175
:1040300063E075E1A2CC0D3C6CE5160709F4AFCC4A
:10404000B0F44DE255E16EE375E10B3C9CE51907D8
:1040500009F493CC47EF54E16BEE74E10C3C1C4542
:1040600008F48BCC4EE355E16DE275E186CC063D5C
:10407000FCE51F0710F40C94DC170D351D4511F4F9
:104080000C94DC1723C00A353DE5130709F497CCDF
:1040900060F401157CE5170709F484CC0E3D1C453E
:1040A000A9F40E947D130C94DC170B359DE51907CC
:1040B00009F487CC0C351D4549F48091B90282FB87
:1040C000882780F991E089270E949C12F70182815C
:1040D00000811181882309F476CCC8010E94D71190
:1040E000D82E682FC8010E943F0AB8018D2D0E946A
:1040F0006F108C01882EF701A280B580B2943FE04A
:10410000B32280915F028770A1F0DA2CAA2091F08F
:10411000812F807F803421F080E2800F883048F04A
:1041200082E00E94BA0A80915F028770DD24D394F6
:104130008111D12CC12EC2942FE0C222FBE0FC15CC
:1041400008F47BCCEC2DF0E0E258FD4C0C94232FCE
:104150001F93CF93DF9380910E02807FA9F480910B
:104160000B02882389F080914002D0910F02609168
:10417000090270910A02A0910C02B0910D02C62FA3
:10418000C72316E0D81304C0DF91CF911F91089583
:1041900090E0109711F0CF3F19F401968770F2CF9D
:1041A000189F9001199F300D1124F901E05FFD4F18
:1041B00041814713F2CF40814613EFCF4281411135
:1041C000ECCF438154814A1B5B0B483C510528F7D7
:1041D00080910E028F70806180930E02F901EB5E78
:1041E000FD4F80818F708061808389E092E00E9422
:1041F0007E17DF91CF911F910C94050BAF92BF9268
:10420000CF92DF92EF92FF920F931F93CF93DF93A2
:10421000CDB7DEB761970FB6F894DEBF0FBECDBF46
:104220008C0185E0F801DE011D9601900D928A95C2
:10423000E1F7F80180819181E28029E0A22E22E05D
:10424000B22E60910C0270910D026115710509F496
:104250003EC13091090240910A02232F24232F3FAF
:1042600009F435C1C380D480F0900B02F601E61B3F
:10427000F70BFF2009F4FBC020910E02522F507F54
:10428000E83CF10508F0BBC0511178C0FE2C491381
:1042900021C038131FC0E1101DC02F702061209372
:1042A0000E02C5010E947E1780910E02F8018583DF
:1042B0008F2D61960FB6F894DEBF0FBECDBFDF9194
:1042C000CF911F910F91FF90EF90DF90CF90BF9013
:1042D000AF900895CD2829F0282F29232F3F09F0EA
:1042E00014C120E0F22FF170DF2E20FF3DC020919D
:1042F000400240910F0256E0241315C08D879E871F
:104300008D859E850E941912292F22952F702230AB
:10431000F8F0243020F59F70F9F0F8019581907F36
:10432000D9F4D12C1FC030E0529FF001539FF00D03
:104330001124E05FFD4F6181961306C060818613F2
:1043400003C06281E61210C02F5F3F4F2770D4CFA9
:104350009F7011F0882329F3805E883010F3C80124
:104360000E947E17FD2CA4CFEE2009F4A1CF8091EE
:104370000E02816080930E02F12C9ACF491312C075
:10438000381310C0E1100EC0F8012583C8010E9447
:104390007E1786E0F801A9E0B2E001900D928A95BF
:1043A000E1F786CF8D879E878D859E850E9423129B
:1043B000882309F1EE20F9F080910E02803270F02E
:1043C0002091090230910A0238872F831986DB86F3
:1043D000CA868C87CE0107960E947E1786E0F80178
:1043E000A9E0B2E001900D928A95E1F70E94A82021
:1043F000FF24F3945DCFC8010E947E17F9CF5111BD
:104400000AC089E092E00E947E1786E0F5011192D1
:104410008A95E9F7B1CF49130FC038130DC0E110E9
:104420000BC0F8012583C8010E947E1786E0F501C4
:1044300011928A95E9F73CCF8D879E878D859E8561
:104440000E9423128823B9F2EE20A9F280910E0275
:10445000803220F22091090230910A023A832983A6
:104460001B82DD82CC828E83CE010196B5CFE83CE3
:10447000F105E0F6FE2CEE2009F4BDCF491316C07D
:10448000381314C080910E0280FD83CF982F907F47
:1044900009F47FCFF8018583903F09F477CF982FF7
:1044A000907F905F8F70892B858370CF8D879E87DB
:1044B0008D859E850E942312811190CF80910E02DE
:1044C000816080930E02C8010E947E17F1CEEE201B
:1044D00009F491CF8D879E878D859E850E9423123A
:1044E000F82E882309F487CF86E0F801A9E0B2E02E
:1044F00001900D928A95E1F78091090290910A024C
:104500000E9419120E94A820D3CE21E02E25EACEC7
:104510001F93CF93DF93CDB7DEB767970FB6F894AD
:10452000DEBF0FBECDBF342F4B8B252F5C8B6D8B29
:104530007E8B8F8B8E899F896111109261021A8AFE
:10454000198A3D872E876F87998B888B86E0FE01BD
:104550003D96DE01179601900D928A95E1F7CE0106
:1045600007960E94FE20882389F016E08091400281
:1045700090910F02891349C067960FB6F894DEBF79
:104580000FBECDBFDF91CF911F91089586E0FE0150
:104590003796DE01119601900D928A95E1F78A8592
:1045A0009B85892B11F38F81988589238F3FE9F2B1
:1045B00020910F0230E0C901019687709927409140
:1045C00040024817190671F40E943C0C10920F0229
:1045D0001092400286E0E9E0F2E0DF011D928A9548
:1045E000E9F7C3CF96E0929FD001939FB00D1124BD
:1045F000A05FBD4FFE01319601900D929A95E1F7B3
:1046000080930F020E94050BB0CF819FC00111243F
:10461000805F9D4F0E94FE20882309F4ADCF8091DA
:10462000400290E0019687709927809340029ECFC8
:10463000AF92BF92CF92DF92EF92FF920F931F93B0
:10464000CF93DF9300D000D0CDB7DEB78DE8E82E52
:1046500081E0F82E9AEBA92E92E0B92E10E0CC243E
:10466000C394D12CF70181917F01F894E82FE29552
:10467000EF70F0E021A18F70A60102C0440F551F1A
:104680008A95E2F7CA01922F982B91A392A1809567
:10469000892382A3789400C0E5E9F1E030E020E0CE
:1046A00000E04191A42FA295AF70B0E090968C915C
:1046B00090E04F7002C0959587954A95E2F780FD8E
:1046C0004CC08C2D022E01C0880F0A94EAF7082BEB
:1046D0002F5F3F4F2630310521F7F7013197808159
:1046E0000E94E20B50EA5A95F1F7F5018081081714
:1046F000B1F1008381E0182BFFEFAF1ABF0A41E947
:10470000E41641E0F40609F0ADCF0091C302112395
:1047100041F181E08093B0010E940E179093AF01A8
:104720008093AE018091AE019091AF010E94AE09DD
:104730000697D8F0E02FF0E0EC5DFC4F8091BA02D4
:1047400080838091BB0281838091BC0282838091AF
:10475000BD0283831092B00108C080E0B8CF80E032
:10476000CACF8091B0018111DDCF0E945A13082F6A
:104770006091C302882309F452C019821A821B82F5
:104780001C82862F90E0BE016F5F7F4F8C5D9C4F37
:104790000E94F82B811123C08091B1018F5F80931B
:1047A000B1018630D0F1E091C202F0E0EC5DFC4F47
:1047B0001082118212821382111101C0102F812FD9
:1047C0000F900F900F900F90DF91CF911F910F914D
:1047D000FF90EF90DF90CF90BF90AF900895109230
:1047E000B101E091C202F0E0BF016C5D7C4FDE01DF
:1047F00011969E012B5F3F4F00E0FB014191BF01ED
:104800009D91491731F0AF0141505109FA01908350
:10481000082FA217B30789F7CFCF00E0CDCF70E004
:104820006C5D7C4F8091C20290E08C5D9C4F0E9439
:10483000232CC2CFCDB7DEB7AD970FB6F894DEBF4D
:104840000FBECDBF84E080930F038FE780931003EA
:10485000809111038078806480931103ECE6F2E08C
:1048600084EB92E02FEF21938E179F07E1F71092D0
:104870000D0310920E031092140310921303109262
:10488000680310926A031092690380EC80932D04F0
:104890008BE693E090932F0480932E0410922C04C7
:1048A00010922B04109248031092470310924A036F
:1048B0001092490310924C0310924B0310924E0336
:1048C00010924D031092500310924F031092520316
:1048D00010925103109254031092530310925603F6
:1048E00010925503109258031092570310925A03D6
:1048F0001092590310925C0310925B0310925E03B6
:1049000010925D03109262031092610387EB98E0AE
:10491000909344038093430382E199E0909364036E
:10492000809363038CE898E09093600380935F0327
:104930008DE898E0909346038093450384B7877F82
:1049400084BF0FB6F894A895809160008861809329
:104950006000109260000FBE80E890E00FB6F894FF
:1049600080936100909361000FBE85B7806885BF1A
:1049700085B7806885BF8AE898E09093A501809309
:10498000A4010E94D6060E94CB078091E2008460B9
:104990008093E2007894809139038823A1F01091EC
:1049A000E9001F709091EC00892F817090FD80E8E4
:1049B000182B1092E9008091E80083FD0E944B0CB7
:1049C0001F701093E90082E084BD93E095BD9AEFDB
:1049D00097BD80936E001092B4021092B5021092AF
:1049E000B6021092B7020E945A13809300010E94EF
:1049F0005A1381110E94CF2B8091000180910001F8
:104A000094E0811190E09093C30284E0891B80932D
:104A1000C20284E90E94E20B86E60E94E20B87E96B
:104A20000E94E20B86EC0E94E20B84EF0E94E20BF4
:104A300085EF0E94E20B86EF0E94E20B87EF0E9457
:104A4000E20B81E30E94E20B83E30E94E20BEAEBBC
:104A5000F2E082EC92E0A4E2B3E011921D928E1794
:104A60009F07D9F790E080E00E942A328A3E9E4F4D
:104A700011F00E947D1382E090E00E941C3280932E
:104A800016030E942E109093B9028093B8020E94E0
:104A900018238FE39CE90197F1F700C000000E9402
:104AA00018238091240380FF17C06FEF83E290E00A
:104AB0000E9430326FEF84E290E00E9430326FEF5C
:104AC00085E290E00E9430326FEF7FEF90E080E06F
:104AD0000E944E320E949D0983E090E00E941C32A9
:104AE000682F70E090E080E00E94F70A0E945A135D
:104AF000811102C00E94D52B83E290E00E941C32FB
:104B0000813209F0C4C584E290E00E941C328630F4
:104B100009F0BDC585E290E00E941C32883109F0A1
:104B2000B6C50E945A138111CDC182E08093030360
:104B300080E8809337040E94432C6DE070E081EFA1
:104B400093E00E94D60F892BE9F58091030363E07F
:104B500070E081FDB9C18EEE93E00E94D60F892BE3
:104B600089F56DE070E08EED93E00E94D60F892B01
:104B700049F50E94BD09605A75418F4F9F4F609360
:104B80000503709306038093070390930803EAE3F9
:104B9000F4E080E092E0DF019C011D922150304062
:104BA000E1F7F0934106E09340068FEF9FEF90937B
:104BB00039048093380481E080930C0380930903C7
:104BC000109204038091C702811139C090E080E007
:104BD0000E942A328A3E9E4F21F00E947D130E943D
:104BE0007F1588E090E00E94243260931F03709349
:104BF000200380932103909322038091C602836057
:104C00008093C6026E7F71F40E947F1588E090E069
:104C10000E94243260931F0370932003809321032A
:104C2000909322030E94CC0B80911F0380FF04C04D
:104C300060E086950E944F1581E08093C7028091C5
:104C40000F03807F826080930F0384E191E0909353
:104C5000C9028093C80284E293E048E0480F4BA762
:104C60008091390300E112E1853009F466C10E94A8
:104C70001823D82E81110E94BD09E7E1F3E0A4E2D8
:104C8000B3E010E000E0B02EED9081918E1509F4B4
:104C900063C18E25C12CFF24F394982F9F2109F422
:104CA00056C10E945A13882399F0C9A2BAA2EF20D4
:104CB00081E009F480E08BA30E940E178160782FB9
:104CC0009DA38CA349A15AA16BA18DA10E9488220A
:104CD000F801E95EFC4F8081F826F08280910C0398
:104CE0008823B1F180910A0390910B030E94AE09D1
:104CF000C29708F048C12091380430913904211539
:104D0000310509F098C180910903882309F10E94B7
:104D1000BD0900910503109106032091070330910E
:104D20000803601B710B820B930B6F3F7F4F8F4FFC
:104D30009F4770F480910C03882351F062E070E08B
:104D400081E694E00E94D60F892B11F4109209039A
:104D5000D1100E940610E0916303F0916403309734
:104D600019F083E493E009959FB7F89400912C041F
:104D700080912B04081708F432C2081B9FBFF12C46
:104D8000E12C10E033E0A32EB12CCC24C394D12C21
:104D900054E0852E77247394E016F10608F423C2BC
:104DA00080911303909114030E94AE092091110386
:104DB0002695269526952F702817190609F060F577
:104DC0000E940E17909314038093130380910E0397
:104DD000882311F190911003991F9927991F8091B1
:104DE00011038770880F40910D0361E0892B0E94A9
:104DF000D30580910E0390910D0387FFA9C2A82FC0
:104E0000BB27A1950CF4B0959A171B060CF0A0C215
:104E100010920D0310920E030E94BB0B909115038C
:104E2000891721F00E94BB0B8093150380913903F1
:104E30008430E1F4809109018F708093E9009091B2
:104E4000E80090FF13C090913903943079F4809377
:104E5000E9009091F3008091F200892B39F0809164
:104E6000E8008E778093E8000E94F5068091390370
:104E7000843009F0F5CE83E08093E9008091E8006A
:104E800082FFEECE8091E80090E085FF09C050E0FF
:104E900040E060E270E0CE0101960E94500791E090
:104EA0008091E8008B778093E800992309F4D8CEAD
:104EB000E981E150E33108F0A9C2F0E0E657FD4C8A
:104EC0000C94232F80E032CE8BEE93E046CE80917F
:104ED0003903843021F11092CA0288E190E0A0E405
:104EE0000FB6F894A895809360000FBEA093600061
:104EF00083B7817F846083BF83B7816083BF7894E9
:104F0000889583B78E7F83BF0FB6F894A89580915C
:104F10006000886180936000109260000FBE8091F5
:104F20003803882351F00E941823E4E2F3E08191D2
:104F3000811197C3BBA5BE13FACF80913903853089
:104F400009F4C5CF0E943C0C0E94BB0B90CEC394C9
:104F5000FF0C26E0C212A1CE0F5F1F4F08301105D3
:104F600009F091CE8FEF8EA38FA318A60E940E1783
:104F70008160782F9AA789A74EA15FA168A58AA50D
:104F80000E948822ABCE0E940E1790930B03809351
:104F90000A038AE394E090934106809340060E94BE
:104FA0005A13882309F442C089E194E00E94960FC5
:104FB0008091330490913404A0913504B09136046B
:104FC0008F309105A105B10560F4FC01E356FD4C5D
:104FD0000C94232F81E194E00E94960F81E00E94BF
:104FE000A40F0BEC12E0D8010D900020E9F78D0121
:104FF00001501109ABECEA2EA2E0FA2EE016F10600
:1050000078F080910C03882309F47DCE74CE8BE078
:1050100094E0E2CF85E094E0DFCF8EEF93E0DCCF49
:10502000F70181917F010E94150FE8CF81E294E0A2
:105030000E94960FE6CF8091040361E070E0811139
:1050400062CE082F10E07B01082E02C0EE0CFF1C80
:105050000A94E2F7A9014E215F21452B09F447C0CC
:105060009091030390FD45C08295880F80768093D0
:1050700003019801369527953695279520930601CB
:10508000815E809304011092070124E630E047E03E
:1050900050E061E071E088E70E94D42C892B09F090
:1050A00032CEA801E5E0440F551FEA95E1F7809163
:1050B000030380FD2CC0465C5B4F04E610E020E259
:1050C00030E060E488E70E94FB2C892B09F01BCEBE
:1050D0000E940610E094F094809138049091390475
:1050E000E822F922F0923904E09238040CCE8F5F66
:1050F000A8CF880F880F880F8093030110920601B4
:10510000895F8093040183E080930701BECFE3EEC3
:10511000F2E080E2DF011D928A95E9F7EFE9F1E024
:10512000FDA7ECA70BE911E063EA262E61E0362E1D
:1051300077E0972E88248394ACA5BDA52D91BDA7BB
:10514000ACA7F80141908F01440E552E511CC201AD
:10515000865C9B4F2C01E22FF0E0ED51FD4F30E0DB
:1051600020E0692C621AC82C022E01C0CC0C0A94D3
:10517000EAF7520190E0D5018D915D018C21662DF9
:10518000691B6770762E062E000C770BB82F01C0B6
:10519000BB0F7A94EAF77B2E719561957109677060
:1051A000772701C086956A95EAF7782A8081782A60
:1051B00070829F5F9830F9F62F5F3F4F319628300D
:1051C000310579F6ECA5FDA52E163F0609F0B4CF02
:1051D00004E610E020E230E043EE52E072CF20918E
:1051E0002D04020FCACD80912B0490E060912D0414
:1051F00070E00E940F2F20912E0430912F04280F71
:10520000391FD9019C9060906803B7EFB915E8F495
:105210007092680320E040E0692D81E090E00E94F8
:10522000E405609268032FB7F89480912B0490E016
:10523000019660912D0470E00E940F2F80932B0443
:105240002FBF4FEFE41AF40AA7CD97FE52C0E4E057
:105250006E1631F090926503D0926A03C092690392
:10526000892D0E949408813069F08823D1F0823022
:10527000A9F0833099F01092680310926A0310929B
:105280006903D1CF8093680320E040E0692D81E07D
:1052900090E00E94E40510926803C5CF80936803F4
:1052A000C2CFF0EF9F16E1F027EF9212E4CF2091EA
:1052B000690330916A03C901B5010E94FB2EFC010C
:1052C000ED5BFC4F92A2C901019690936A03809313
:1052D0006903209167034091660360916503D9CF0C
:1052E0008092680390926503D0926A03C09269032A
:1052F0009ACF662009F497CF2091690330916A0311
:10530000C901B5010E94FB2EAC01FC01ED5BFC4F15
:1053100092A2C901019690936A0380936903413078
:10532000510589F04230510509F07DCF2091670386
:1053300040916603609165030E94E40580916803D3
:10534000843091F670CF32E020E063126CCFF0CF62
:10535000890F87FD03C080930D035ECD8FE7FBCFE0
:105360001A8289E08B8311C08A81823009F4A8C136
:10537000833091F1813009F049C00E94BD090E943B
:10538000292F6B837C838D839E83809139038430A6
:1053900009F066CC1091E9001F709091EC00892F04
:1053A000817090FD80E8182B82E08093E900809165
:1053B000E80080FF0DC050E040E060E270E0CE0108
:1053C00001960E9426078091E8008E778093E8007E
:1053D0001F701093E90044CCDE0113968CE293E039
:1053E000E4E2F3E021912D938E179F07D9F7CDCFFB
:1053F0008A81823059F46B817C818D819E810E94EB
:10540000292F86E290E00E943032BFCF8FEF898350
:10541000BCCF4C816B818A810E943C1098278927E0
:1054200098279E838D83B1CFED80FE80FE24EF24EC
:10543000FE248A810B81BCE00B9F80011124E0E6F1
:105440008E9F000D111D11248C8190E0880F991FF3
:10545000080F191F6F2DC80187960E9430326E2DDC
:10546000C8018896D0CF0E9447128FCF8A81813899
:10547000C1F060F4803809F088CF20E04B81609162
:105480002103809120030E94FA137FCF8238E9F034
:10549000833809F07ACF20E0409122036C818B8120
:1054A000F2CF60E08B810E944F158B81811103C088
:1054B0000E9445136ACF80911F03816080931F0370
:1054C00060E086950E944F1560CF8B818093230307
:1054D0005CCF8A81813899F030F4803809F055CF5B
:1054E000809122033FCF823891F0833809F04DCF6D
:1054F000809120038B83809121038C8346CF809100
:105500001F0380FF02C086952DCF80E02BCF8091B6
:10551000230328CF60911F03709120038091210302
:10552000909122030E94E81330CF80E18A832DCF2F
:1055300082E08A8389E516CFEA80FB80FE24EF248F
:10554000FE248E010F5F1F4FCC80C00ED12ED11CC8
:10555000C70189559E4F0C151D0509F416CFF9E5B5
:10556000EF16F2E0FF0658F40E941C32D8011496A0
:105570008C93FFEFEF1AFF0A0F5F1F4FE9CFF8017F
:105580001482F7CF0A811B811027012710279E0163
:105590002F5F3F4F6901EC80E00EF12EF11CC80136
:1055A00089559E4FE016F10609F4EFCE093532E039
:1055B000130728F4D60114966C910E943032BFEF85
:1055C000CB1ADB0A0F5F1F4FEACF0E94B612DDCE67
:1055D00084E0ACCFEA80FB80FE24EF24FE248E0121
:1055E0000F5F1F4FCC80C00ED12ED11CC7018796F4
:1055F000C016D10609F4C9CEE0E8EE16E1E0FE06D9
:1056000058F40E941C32D80114968C93FFEFEF1AC5
:10561000FF0A0F5F1F4FEACFF8011482F7CF0A810C
:105620001B811027012710279E012F5F3F4F690123
:10563000EC80E00EF12EF11CC8018796E016F10611
:1056400009F4A3CE003831E0130728F4D6011496EC
:105650006C910E943032BFEFCB1ADB0A0F5F1F4FF5
:10566000EBCF09BD19BD09B400FEFDCF8091D80074
:105670008F7D8093D8008091E00082608093E0006D
:105680008091E00081FDFCCF0E943C0C56CC60E094
:1056900086E290E00E9430320E9447120E94B612C9
:1056A00061E283E290E00E94303266E084E290E0C2
:1056B0000E94303268E185E290E00E94303231CAC7
:1056C00086E290E00E941C321B821C821D828E8327
:1056D0005CCE1F921FB61F9211248F939F93AF939E
:1056E000BF938091CA02811113C08091680290918A
:1056F0006902A0916A02B0916B024196A11DB11D91
:105700008093680290936902A0936A02B0936B023F
:10571000BF91AF919F918F911F901FBE1F901895C1
:105720001F93CF93DF93EC01162F8F8180FF0BC067
:10573000888180FF14C090911F03916090931F0394
:1057400086950E944F158F8181FF0CC0212F4B81C0
:105750006A818981DF91CF911F910C94FA130E9485
:105760004513F1CFDF91CF911F91089525E0EFE12F
:10577000F3E0DC0101900D922A95E1F72091C4023B
:105780003091C5024091C602FC01258336834783D0
:1057900008951092C60208958091C602089562E0AD
:1057A00070E08FE191E00C948F2D62E070E08FE16A
:1057B00091E00C94982D0E94CC2B882361F08CE40E
:1057C00096E00E94B62B81E090E00E94712E892B1A
:1057D00011F40C94C92B089580914B06883039F44C
:1057E00060E08CE496E00E94902B10924B060895A6
:1057F000CF93DF93D62FC72F0E94DB2B90E080E062
:105800000E94712E0097E9F4ED2FFC2FDC01A95BBB
:10581000B94F2C912193019684309105B9F70E94DC
:10582000B2166E5F7F4F8F4F9F4F6093430670930A
:105830004406809345069093460681E0DF91CF9120
:10584000089580E0FBCFCF93DF93D62FC72F0E9420
:10585000EC2B60914306709144068091450690912F
:1058600046060E94CD16ED2FFC2F90E080E021919E
:10587000DC01A95BB94F2C93019684309105B9F7EF
:10588000DF91CF9108951092B9008CE08093B80019
:105890000895EF92FF920F931F93CF93DF93182FEA
:1058A000EB011092BC0084EA8093BC000E940E17AA
:1058B0007C018091BC0087FF27C08091B900887F60
:1058C000883029F08091B900887F8031D9F5109314
:1058D000BB0084E88093BC000E940E178C0180916D
:1058E000BC0087FF24C02091B900287F90E080E0B1
:1058F0002831B1F081E090E0203411F490E080E0B4
:105900009195819591090CC0CF3FDC0791F20E94DF
:105910000E178E199F098C179D0758F28EEF9FEF77
:10592000DF91CF911F910F91FF90EF900895CF3F9E
:10593000DC07A9F20E940E17801B910B8C179D07A4
:1059400070F2ECCF8FEF9FEFEBCF0F931F93CF93BE
:10595000DF93EB018093BB0084E88093BC000E943E
:105960000E178C018091BC0087FF11C02091B900F7
:10597000287F81E090E0283211F490E080E091955A
:1059800081959109DF91CF911F910F910895CF3F9C
:10599000DC0741F30E940E17801B910B8C179D07AB
:1059A00008F38EEF9FEFEECFCF92DF92EF92FF9250
:1059B0000F931F93CF93DF936B018A017901B90194
:1059C0000E94492CE6010C0D1D1DC017D10761F482
:1059D00024E92093BC00DF91CF911F910F91FF909C
:1059E000EF90DF90CF90089597FDF2CFB7018991A6
:1059F0000E94A52CEACFCF92DF92EF92FF920F93F5
:105A00001F93CF93DF93C62F6A017901B8010E94DB
:105A1000492C97FD0CC0B8018C2F0E94A52CE601E3
:105A2000EC0CFD1CCE15DF0511F097FF0CC024E92E
:105A30002093BC00DF91CF911F910F91FF90EF90C9
:105A4000DF90CF900895B80189910E94A52CEACFEC
:105A500084E98093BC0008958EE14A9B02C0815086
:105A6000E1F74A9BFECF08955A9880E28A95F1F7B4
:105A70005A9A0895FC013BE03A95F1F720E090E056
:105A800080E031E040E14A95F1F7880F4A9B02C07F
:105A90008160232742E04A95F1F7000040E14A95F2
:105AA000F1F79F5F6913EECF90E19A95F1F799B105
:105AB00032E03A95F1F7000040E14A95F1F792FBA8
:105AC000992790F992272081920F90830895EF9261
:105AD000FF920F931F93CF93DF930F92CDB7DEB753
